:100000000C9462000C948A000C948A000C948A0070
:100010000C948A000C948A000C948A000C948A0038
:100020000C948A000C948A000C948A000C948A0028
:100030000C948A000C948A000C948A000C948A0018
:100040000C9475030C948A000C9443030C941D03C8
:100050000C948A000C948A000C948A000C948A00F8
:100060000C948A000C948A000000000024002700F1
:100070002A0000000000250028002B0000000000DE
:1000800023002600290004040404040404040202DA
:100090000202020203030303030301020408102007
:1000A0004080010204081020010204081020000012
:1000B0000008000201000003040700000000000027
:1000C0000000CD0411241FBECFEFD8E0DEBFCDBFAE
:1000D00011E0A0E0B1E0E8EFFDE002C005900D9274
:1000E000A235B107D9F721E0A2E5B1E001C01D9228
:1000F000A83FB207E1F710E0C2E6D0E004C02197C4
:10010000FE010E94F406C136D107C9F70E94BF0361
:100110000C94FA060C940000AF92BF92CF92DF923B
:10012000EF92FF920F931F93CF93DF936C017B01AC
:100130008B01040F151FEB015E01AE18BF08C0173D
:10014000D10759F06991D601ED91FC910190F081B0
:10015000E02DC6010995892B79F7C501DF91CF9173
:100160001F910F91FF90EF90DF90CF90BF90AF90D5
:100170000895FC01538D448D252F30E0842F90E0AD
:10018000821B930B541710F0CF9608950197089592
:10019000FC01918D828D981761F0A28DAE0FBF2F5B
:1001A000B11D5D968C91928D9F5F9F73928F90E0B1
:1001B00008958FEF9FEF0895FC01918D828D981720
:1001C00031F0828DE80FF11D858D90E008958FEF5D
:1001D0009FEF0895FC01918D228D892F90E0805C26
:1001E0009F4F821B91098F73992708958BE591E0AA
:1001F0000E94EA0021E0892B09F420E0822F089573
:1002000080E090E0892B29F00E94F60081110C9487
:1002100000000895FC01A48DA80FB92FB11DA35AA9
:10022000BF4F2C91848D90E001968F739927848F16
:10023000A689B7892C93A089B1898C918370806439
:100240008C93938D848D981306C00288F389E02DDA
:1002500080818F7D80830895EF92FF920F931F938B
:10026000CF93DF93EC0181E0888F9B8D8C8D981369
:100270001AC0E889F989808185FF15C09FB7F89475
:10028000EE89FF896083E889F989808183708064C1
:1002900080839FBF81E090E0DF91CF911F910F910C
:1002A000FF90EF900895F62E0B8D10E00F5F1F4F1B
:1002B0000F731127E02E8C8D8E110CC00FB607FC2A
:1002C000FACFE889F989808185FFF5CFCE010E94B8
:1002D0000A01F1CFEB8DEC0FFD2FF11DE35AFF4F1B
:1002E000F0829FB7F8940B8FEA89FB898081806246
:1002F000CFCFCF93DF93EC01888D8823B9F0AA8903
:10030000BB89E889F9898C9185FD03C0808186FDD0
:100310000DC00FB607FCF7CF8C9185FFF2CF80811F
:1003200085FFEDCFCE010E940A01E9CFDF91CF9189
:100330000895833081F028F4813099F08230A9F05B
:1003400008958730A9F08830C9F08430B1F48091E5
:1003500080008F7D03C0809180008F778093800024
:10036000089584B58F7784BD089584B58F7DFBCFC4
:100370008091B0008F778093B00008958091B00095
:100380008F7DF9CFCF93DF93282F30E0F901E2552D
:10039000FF4F8491F901E656FF4FD491F901EA57D6
:1003A000FF4FC491CC23A1F081110E949901EC2F41
:1003B000F0E0EE0FFF1FE458FF4FA591B491EC91D0
:1003C000ED2381E090E009F480E0DF91CF91089582
:1003D00080E090E0FACF1F93CF93DF93282F30E097
:1003E000F901E255FF4F8491F901E656FF4FD49190
:1003F000F901EA57FF4FC491CC23A9F0162F8111C0
:100400000E949901EC2FF0E0EE0FFF1FEE58FF4F16
:10041000A591B4918FB7F894EC91111108C0D095C3
:10042000DE23DC938FBFDF91CF911F910895DE2BE8
:10043000F8CFCF93DF9390E0FC01E656FF4F249175
:100440008A579F4FFC0184918823D1F090E0880F58
:10045000991FFC01E859FF4FA591B491FC01EE589A
:10046000FF4FC591D49161110EC09FB7F8948C9144
:10047000E22FE0958E238C932881E223E8839FBFAF
:10048000DF91CF9108958FB7F894EC91E22BEC9324
:100490008FBFF6CF3FB7F8948091570190915801E4
:1004A000A0915901B0915A0126B5A89B05C02F3FD4
:1004B00019F00196A11DB11D3FBFBA2FA92F982F8A
:1004C0008827BC01CD01620F711D811D911D42E085
:1004D000660F771F881F991F4A95D1F708958F924D
:1004E0009F92AF92BF92CF92DF92EF92FF926B01F9
:1004F0007C010E944A024B015C01C114D104E10459
:10050000F104B9F00E944A02681979098A099B0925
:10051000683E73408105910580F321E0C21AD1083D
:10052000E108F10888EE880E83E0981EA11CB11C3A
:10053000E4CFFF90EF90DF90CF90BF90AF909F906F
:100540008F900895CF93DF93FC0101900020E9F78D
:100550003197AF01481B590BBC018BE591E00E941C
:100560008C00EC0142E050E066E171E08BE591E047
:100570000E948C008C0F9D1FDF91CF910895CF9228
:10058000DF92EF92FF926B017C0120E030E0A90145
:100590000E94820618160CF040C020E030E04FE7C1
:1005A00053E4C701B6010E9467051816B4F120E0B4
:1005B00030E04FE753E4C701B6010E946C056B01C0
:1005C0007C01C0920001D0920101E0920201F09200
:1005D000030161E087E00E94EB0160E086E00E9499
:1005E000EB0161E089E00E94EB0120E030E04AE7A6
:1005F00054E4C701B6010E9487060E94DE050E94EE
:100600006F0260E087E00E94EB0160E086E0FF900F
:10061000EF90DF90CF900C94EB0160E087E00E94B8
:10062000EB0160E086E00E94EB0189E191E0FF9040
:10063000EF90DF90CF900C94A2021F920F920FB612
:100640000F9211242F933F934F935F936F937F9358
:100650008F939F93AF93BF93EF93FF938BE591E0BD
:100660000E940A01FF91EF91BF91AF919F918F91ED
:100670007F916F915F914F913F912F910F900FBE9E
:100680000F901F9018951F920F920FB60F92112482
:100690002F938F939F93EF93FF93E0916B01F091D2
:1006A0006C018081E0917101F091720182FD1BC0AB
:1006B0009081809174018F5F8F73209175018217F3
:1006C00041F0E0917401F0E0E55AFE4F958F809380
:1006D0007401FF91EF919F918F912F910F900FBE19
:1006E0000F901F9018958081F4CF1F920F920FB634
:1006F0000F9211242F933F938F939F93AF93BF93A8
:100700008091530190915401A0915501B0915601EF
:100710003091520123E0230F2D3758F50196A11D8A
:10072000B11D209352018093530190935401A093E3
:100730005501B09356018091570190915801A091B5
:100740005901B0915A010196A11DB11D8093570125
:1007500090935801A0935901B0935A01BF91AF9162
:100760009F918F913F912F910F900FBE0F901F90EF
:10077000189526E8230F0296A11DB11DD2CF7894BB
:1007800084B5826084BD84B5816084BD85B5826096
:1007900085BD85B5816085BD80916E008160809347
:1007A0006E001092810080918100826080938100B0
:1007B00080918100816080938100809180008160C0
:1007C000809380008091B10084608093B10080911B
:1007D000B00081608093B00080917A008460809343
:1007E0007A0080917A00826080937A0080917A000A
:1007F000816080937A0080917A00806880937A008B
:100800001092C100E0916B01F0916C0182E0808355
:10081000E0916701F09168011082E0916901F09127
:100820006A018FEC808310927301E0916F01F09167
:10083000700186E08083E0916D01F0916E0180810E
:1008400080618083E0916D01F0916E01808188600C
:100850008083E0916D01F0916E01808180688083DA
:10086000E0916D01F0916E0180818F7D808361E068
:1008700087E00E94190261E086E00E94190261E0AF
:1008800089E00E94190260E082E00E94190260E0A3
:1008900083E00E94190260E084E00E941902C0E037
:1008A000D0E082E00E94C201892BD9F583E00E944A
:1008B000C201892BB1F584E00E94C201892B89F520
:1008C00060E087E00E94EB0160E086E00E94EB01BF
:1008D00061E089E00E94EB018CE491E00E94A202B9
:1008E00020910001309101014091020150910301DA
:1008F00060E070E080E89FE30E94FA0420E030E0CE
:100900004AE754E40E9487060E94DE050E946F02B7
:10091000209739F20E94F600882319F20E94000005
:10092000C0CF83E00E94C201892B69F084E00E945D
:10093000C201892BB1F084E00E94C201892BF9F039
:1009400082E391E0CBCF82E00E94C201892B71F754
:1009500060E070E080E493E40E94BF028FE291E0E7
:10096000BDCF82E00E94C201892B29F760E070E0D0
:1009700080E093E40E94BF028BE491E0AFCF83E07C
:100980000E94C201892BE1F660E070E080E892E409
:100990000E94BF028EE491E0A1CFEBE5F1E013826B
:1009A000128288EE93E0A0E0B0E084839583A68372
:1009B000B78388E091E09183808385EC90E0958710
:1009C000848784EC90E09787868780EC90E0918B19
:1009D000808B81EC90E0938B828B82EC90E0958B06
:1009E000848B86EC90E0978B868B118E128E138E03
:1009F000148E08955058BB27AA270E9412050C9404
:100A000048060E943A0638F00E94410620F039F468
:100A10009F3F19F426F40C9437060EF4E095E7FB9B
:100A20000C943106E92F0E94590658F3BA17620751
:100A300073078407950720F079F4A6F50C947B06DC
:100A40000EF4E0950B2EBA2FA02D0B01B9019001E9
:100A50000C01CA01A0011124FF27591B99F0593F2D
:100A600050F4503E68F11A16F040A22F232F342F75
:100A70004427585FF3CF469537952795A795F040C3
:100A80005395C9F77EF41F16BA0B620B730B840BD8
:100A9000BAF09150A1F0FF0FBB1F661F771F881F90
:100AA000C2F70EC0BA0F621F731F841F48F48795E8
:100AB00077956795B795F7959E3F08F0B0CF9395DA
:100AC000880F08F09927EE0F9795879508950E9453
:100AD0000D0608F481E008950E9480050C944806F4
:100AE0000E94410658F00E943A0640F029F45F3F08
:100AF00029F00C94310651110C947C060C943706A5
:100B00000E94590668F39923B1F3552391F3951B7D
:100B1000550BBB27AA2762177307840738F09F5F1E
:100B20005F4F220F331F441FAA1FA9F335D00E2E8B
:100B30003AF0E0E832D091505040E695001CCAF7F8
:100B40002BD0FE2F29D0660F771F881FBB1F2617BB
:100B500037074807AB07B0E809F0BB0B802DBF0192
:100B6000FF2793585F4F3AF09E3F510578F00C9461
:100B700031060C947C065F3FE4F3983ED4F38695EF
:100B800077956795B795F7959F5FC9F7880F911D82
:100B90009695879597F90895E1E0660F771F881F6E
:100BA000BB1F621773078407BA0720F0621B730B21
:100BB000840BBA0BEE1F88F7E09508950E9461063A
:100BC00088F09F5798F0B92F9927B751B0F0E1F00E
:100BD000660F771F881F991F1AF0BA95C9F714C0BE
:100BE000B13091F00E947B06B1E008950C947B0631
:100BF000672F782F8827B85F39F0B93FCCF38695F7
:100C000077956795B395D9F73EF490958095709553
:100C100061957F4F8F4F9F4F0895990F0008550F93
:100C2000AA0BE0E8FEEF16161706E807F907C0F072
:100C300012161306E407F50798F0621B730B840B7A
:100C4000950B39F40A2661F0232B242B252B21F454
:100C500008950A2609F4A140A6958FEF811D811DF4
:100C6000089597F99F6780E870E060E008959FEF2E
:100C700080EC089500240A94161617061806090633
:100C8000089500240A941216130614060506089502
:100C9000092E0394000C11F4882352F0BB0F40F48A
:100CA000BF2B11F460FF04C06F5F7F4F8F4F9F4FCA
:100CB000089557FD9058440F551F59F05F3F71F04C
:100CC0004795880F97FB991F61F09F3F79F08795B3
:100CD0000895121613061406551FF2CF4695F1DF3C
:100CE00008C0161617061806991FF1CF86957105CC
:100CF000610508940895E894BB2766277727CB0100
:100D000097F908950E940D0608F48FEF08950E9448
:100D10009A060C9448060E943A0638F00E94410652
:100D200020F0952311F00C9431060C943706112411
:100D30000C947C060E94590670F3959FC1F3950FA1
:100D400050E0551F629FF001729FBB27F00DB11D4F
:100D5000639FAA27F00DB11DAA1F649F6627B00DDF
:100D6000A11D661F829F2227B00DA11D621F739FC8
:100D7000B00DA11D621F839FA00D611D221F749FD6
:100D80003327A00D611D231F849F600D211D822F1D
:100D9000762F6A2F11249F5750409AF0F1F0882344
:100DA0004AF0EE0FFF1FBB1F661F771F881F915071
:100DB0005040A9F79E3F510580F00C9431060C94E9
:100DC0007C065F3FE4F3983ED4F38695779567956C
:100DD000B795F795E7959F5FC1F7FE2B880F911D9B
:100DE0009695879597F90895EE0FFF1F0590F4915A
:080DF000E02D0994F894FFCFF7
:100DF8000000803F000000002C018C00B900790140
:100E0800EA00C800DC000D0A006E6F742062657489
:100E18007765656E203020616E6420323535003785
:100E28003500646F6E74206B6E6F7720776861741D
:100E38007320676F696E67206F6E0035300032353A
:020E48000000A8
:00000001FF
